{
  "_format": "hh-sol-artifact-1",
  "contractName": "TokenizedBallot",
  "sourceName": "contracts/TokenizedBallot.sol",
  "abi": [
    {
      "inputs": [
        {
          "internalType": "bytes32[]",
          "name": "proposalNames",
          "type": "bytes32[]"
        },
        {
          "internalType": "address",
          "name": "_voteToken",
          "type": "address"
        },
        {
          "internalType": "uint256",
          "name": "_targetBlock",
          "type": "uint256"
        }
      ],
      "stateMutability": "nonpayable",
      "type": "constructor"
    },
    {
      "inputs": [
        {
          "internalType": "uint256",
          "name": "",
          "type": "uint256"
        }
      ],
      "name": "proposals",
      "outputs": [
        {
          "internalType": "bytes32",
          "name": "name",
          "type": "bytes32"
        },
        {
          "internalType": "uint256",
          "name": "voteCount",
          "type": "uint256"
        }
      ],
      "stateMutability": "view",
      "type": "function"
    },
    {
      "inputs": [],
      "name": "targetBlock",
      "outputs": [
        {
          "internalType": "uint256",
          "name": "",
          "type": "uint256"
        }
      ],
      "stateMutability": "view",
      "type": "function"
    },
    {
      "inputs": [
        {
          "internalType": "uint256",
          "name": "proposal",
          "type": "uint256"
        },
        {
          "internalType": "uint256",
          "name": "amount",
          "type": "uint256"
        }
      ],
      "name": "vote",
      "outputs": [],
      "stateMutability": "nonpayable",
      "type": "function"
    },
    {
      "inputs": [
        {
          "internalType": "address",
          "name": "account",
          "type": "address"
        }
      ],
      "name": "votePower",
      "outputs": [
        {
          "internalType": "uint256",
          "name": "",
          "type": "uint256"
        }
      ],
      "stateMutability": "view",
      "type": "function"
    },
    {
      "inputs": [],
      "name": "voteToken",
      "outputs": [
        {
          "internalType": "contract MyToken",
          "name": "",
          "type": "address"
        }
      ],
      "stateMutability": "view",
      "type": "function"
    },
    {
      "inputs": [],
      "name": "winnerName",
      "outputs": [
        {
          "internalType": "bytes32",
          "name": "winnerName_",
          "type": "bytes32"
        }
      ],
      "stateMutability": "view",
      "type": "function"
    },
    {
      "inputs": [],
      "name": "winningProposal",
      "outputs": [
        {
          "internalType": "uint256",
          "name": "winningProposal_",
          "type": "uint256"
        }
      ],
      "stateMutability": "view",
      "type": "function"
    }
  ],
  "bytecode": "0x60806040523480156200001157600080fd5b5060405162000d8f38038062000d8f833981810160405281019062000037919062000384565b81600160006101000a81548173ffffffffffffffffffffffffffffffffffffffff021916908373ffffffffffffffffffffffffffffffffffffffff1602179055508060028190555060005b8351811015620001165760006040518060400160405280868481518110620000af57620000ae620003ff565b5b60200260200101518152602001600081525090806001815401808255809150506001900390600052602060002090600202016000909190919091506000820151816000015560208201518160010155505080806200010d906200045d565b91505062000082565b50505050620004aa565b6000604051905090565b600080fd5b600080fd5b600080fd5b6000601f19601f8301169050919050565b7f4e487b7100000000000000000000000000000000000000000000000000000000600052604160045260246000fd5b620001848262000139565b810181811067ffffffffffffffff82111715620001a657620001a56200014a565b5b80604052505050565b6000620001bb62000120565b9050620001c9828262000179565b919050565b600067ffffffffffffffff821115620001ec57620001eb6200014a565b5b602082029050602081019050919050565b600080fd5b6000819050919050565b620002178162000202565b81146200022357600080fd5b50565b60008151905062000237816200020c565b92915050565b6000620002546200024e84620001ce565b620001af565b905080838252602082019050602084028301858111156200027a5762000279620001fd565b5b835b81811015620002a7578062000292888262000226565b8452602084019350506020810190506200027c565b5050509392505050565b600082601f830112620002c957620002c862000134565b5b8151620002db8482602086016200023d565b91505092915050565b600073ffffffffffffffffffffffffffffffffffffffff82169050919050565b60006200031182620002e4565b9050919050565b620003238162000304565b81146200032f57600080fd5b50565b600081519050620003438162000318565b92915050565b6000819050919050565b6200035e8162000349565b81146200036a57600080fd5b50565b6000815190506200037e8162000353565b92915050565b600080600060608486031215620003a0576200039f6200012a565b5b600084015167ffffffffffffffff811115620003c157620003c06200012f565b5b620003cf86828701620002b1565b9350506020620003e28682870162000332565b9250506040620003f5868287016200036d565b9150509250925092565b7f4e487b7100000000000000000000000000000000000000000000000000000000600052603260045260246000fd5b7f4e487b7100000000000000000000000000000000000000000000000000000000600052601160045260246000fd5b60006200046a8262000349565b91507fffffffffffffffffffffffffffffffffffffffffffffffffffffffffffffffff82036200049f576200049e6200042e565b5b600182019050919050565b6108d580620004ba6000396000f3fe608060405234801561001057600080fd5b506004361061007d5760003560e01c8063609ff1bd1161005b578063609ff1bd146100ef578063b384abef1461010d578063e2ba53f014610129578063e490e699146101475761007d565b8063013cf08b146100825780630a16697a146100b3578063160d66ae146100d1575b600080fd5b61009c600480360381019061009791906104a1565b610177565b6040516100aa9291906104f6565b60405180910390f35b6100bb6101ab565b6040516100c8919061051f565b60405180910390f35b6100d96101b1565b6040516100e691906105b9565b60405180910390f35b6100f76101d7565b604051610104919061051f565b60405180910390f35b610127600480360381019061012291906105d4565b61025f565b005b610131610340565b60405161013e9190610614565b60405180910390f35b610161600480360381019061015c919061066d565b610373565b60405161016e919061051f565b60405180910390f35b6000818154811061018757600080fd5b90600052602060002090600202016000915090508060000154908060010154905082565b60025481565b600160009054906101000a900473ffffffffffffffffffffffffffffffffffffffff1681565b6000806000905060005b60008054905081101561025a5781600082815481106102035761020261069a565b5b9060005260206000209060020201600101541115610247576000818154811061022f5761022e61069a565b5b90600052602060002090600202016001015491508092505b8080610252906106f8565b9150506101e1565b505090565b8061026933610373565b10156102aa576040517f08c379a00000000000000000000000000000000000000000000000000000000081526004016102a19061079d565b60405180910390fd5b80600083815481106102bf576102be61069a565b5b906000526020600020906002020160010160008282546102df91906107bd565b9250508190555080600360003373ffffffffffffffffffffffffffffffffffffffff1673ffffffffffffffffffffffffffffffffffffffff168152602001908152602001600020600082825461033591906107bd565b925050819055505050565b60008061034b6101d7565b8154811061035c5761035b61069a565b5b906000526020600020906002020160000154905090565b6000600360008373ffffffffffffffffffffffffffffffffffffffff1673ffffffffffffffffffffffffffffffffffffffff16815260200190815260200160002054600160009054906101000a900473ffffffffffffffffffffffffffffffffffffffff1673ffffffffffffffffffffffffffffffffffffffff16633a46b1a8846002546040518363ffffffff1660e01b8152600401610414929190610800565b602060405180830381865afa158015610431573d6000803e3d6000fd5b505050506040513d601f19601f82011682018060405250810190610455919061083e565b61045f919061086b565b9050919050565b600080fd5b6000819050919050565b61047e8161046b565b811461048957600080fd5b50565b60008135905061049b81610475565b92915050565b6000602082840312156104b7576104b6610466565b5b60006104c58482850161048c565b91505092915050565b6000819050919050565b6104e1816104ce565b82525050565b6104f08161046b565b82525050565b600060408201905061050b60008301856104d8565b61051860208301846104e7565b9392505050565b600060208201905061053460008301846104e7565b92915050565b600073ffffffffffffffffffffffffffffffffffffffff82169050919050565b6000819050919050565b600061057f61057a6105758461053a565b61055a565b61053a565b9050919050565b600061059182610564565b9050919050565b60006105a382610586565b9050919050565b6105b381610598565b82525050565b60006020820190506105ce60008301846105aa565b92915050565b600080604083850312156105eb576105ea610466565b5b60006105f98582860161048c565b925050602061060a8582860161048c565b9150509250929050565b600060208201905061062960008301846104d8565b92915050565b600061063a8261053a565b9050919050565b61064a8161062f565b811461065557600080fd5b50565b60008135905061066781610641565b92915050565b60006020828403121561068357610682610466565b5b600061069184828501610658565b91505092915050565b7f4e487b7100000000000000000000000000000000000000000000000000000000600052603260045260246000fd5b7f4e487b7100000000000000000000000000000000000000000000000000000000600052601160045260246000fd5b60006107038261046b565b91507fffffffffffffffffffffffffffffffffffffffffffffffffffffffffffffffff8203610735576107346106c9565b5b600182019050919050565b600082825260208201905092915050565b7f4e6f7420656e6f75676820766f746520706f7765720000000000000000000000600082015250565b6000610787601583610740565b915061079282610751565b602082019050919050565b600060208201905081810360008301526107b68161077a565b9050919050565b60006107c88261046b565b91506107d38361046b565b92508282019050808211156107eb576107ea6106c9565b5b92915050565b6107fa8161062f565b82525050565b600060408201905061081560008301856107f1565b61082260208301846104e7565b9392505050565b60008151905061083881610475565b92915050565b60006020828403121561085457610853610466565b5b600061086284828501610829565b91505092915050565b60006108768261046b565b91506108818361046b565b9250828203905081811115610899576108986106c9565b5b9291505056fea26469706673582212207b37dfe93a7044a87b984fefd812a4f7a2f6ce814fe9e0c08e5a5ef6d0e5be5d64736f6c63430008110033",
  "linkReferences": {},
  "deployedLinkReferences": {}
}